:020000040800F2
:10000000D807002039020008410200084302000816
:1000100045020008470200084902000800000000ED
:100020000000000000000000000000004B0200087B
:100030004D020008000000004F020008350C0008C7
:10004000530200085302000853020008530200083C
:10005000530200085302000853020008530200082C
:10006000530200085302000853020008110300085D
:1000700053020008530200084503000879030008F2
:10008000AD030008530200085302000800000000FE
:100090000000000000000000000000005302000803
:1000A00053020008530200085302000853020008DC
:1000B00053020008530200085302000853020008CC
:1000C00053020008530200085302000853020008BC
:1000D00053020008D90C0008530200080000000079
:1000E00053020008530200085302000800000000F9
:1000F00000000000000000000000000053020008A3
:1001000000000000530200085302000853020008D8
:1001100000000000000000000000000000000000DF
:10012000530200085302000853020008530200085B
:100130005302000800000000000000000000000062
:100140000000000000000000000000005302000852
:10015000530200085302000853020008530200082B
:1001600053020008530200080000000000000000D5
:10017000000000000000000000000000000000007F
:100180000000000053020008000000000000000012
:10019000530200085302000800F002F800F03CF897
:1001A0000AA090E8000C82448344AAF10107DA45D2
:1001B00001D100F031F8AFF2090EBAE80F0013F0E8
:1001C000010F18BFFB1A43F001031847701F00000E
:1001D000901F0000103A24BF78C878C1FAD852079F
:1001E00024BF30C830C144BF04680C6070470000B1
:1001F0000023002400250026103A28BF78C1FBD830
:10020000520728BF30C148BF0B6070471FB501F0CF
:1002100088FF1FBD10B510BD00F044F81146FFF770
:10022000F5FF01F0E1F900F062F803B4FFF7F2FF27
:1002300003BC00F065F80000094880470948004702
:10024000FEE7FEE7FEE7FEE7FEE7FEE7FEE7FEE786
:10025000FEE7FEE704480549054A064B70470000E3
:10026000450C000899010008D8010020D80700209B
:10027000D8030020D803002070477047704710B59E
:1002800000F008F8006810BD10B5044600F002F850
:10029000046010BD004870471000002000487047FF
:1002A000100000207546FFF7F9FFAE4605006946CD
:1002B000534620F00700854618B020B5FFF7CAFF67
:1002C000BDE820404FF000064FF000074FF0000857
:1002D0004FF0000BAC46ACE8C009ACE8C009ACE894
:1002E000C009ACE8C00921F007018D46704710B580
:1002F0000446AFF300802046BDE81040FFF795BFED
:1003000001491820ABBEFEE726000200704700003E
:1003100046F21000C4F2020050F8101C890658BFC3
:100320007047016821F00101016040F60C01C4F240
:1003300000010A6822F400720A60202140F8081CBB
:100340007047000046F25800C4F2020050F8581CF2
:10035000090158BF7047016821F00101016040F6B2
:100360000C01C4F200010A6822F480620A604FF0B6
:10037000006140F8501C704746F27000C4F2020061
:1003800050F86C1C890658BF7047016821F00101C4
:10039000016040F20C41C4F200010A6822F40072CC
:1003A0000A60202140F8641C7047000046F2880073
:1003B000C4F2020050F8841C090558BF7047016858
:1003C00021F00101016040F20C41C4F200010A6811
:1003D00022F480620A604FF4006140F87C1C704790
:1003E00070B543F63000C4F20200016840F20045E7
:1003F00041F0020101600169C4F2000541F006010B
:100400000161016840F60C0441F40011016040F202
:100410000040C4F202000168C4F2000421F4AA41C1
:100420000160016846F2100641F42A4101608168CA
:10043000C4F2020641F47F418160C16821F47F412A
:10044000C160016A41F0085141F408110162286855
:10045000132120F0010028600720A862E962D5F886
:10046000002422F00102C5F80024E0612162E8685E
:1004700046F6680140F4C060E860A8690843A861D6
:1004800000206863A8632A6A42F011022A62226887
:1004900042F4C0622260E2681143E160A062E0625F
:1004A000616941F0110161616862A061686940F0B1
:1004B00001006861A06840F00100A060286840F079
:1004C00081002860D5F8000440F08100C5F80004E0
:1004D000306E20F001003066306EC007FCD1B06F86
:1004E00020F00100B06700BFB06FC007FCD13068DA
:1004F00020F00100306000BF3068C007FCD1B06C54
:1005000020F00100B06400BFB06CC007FCD10F2028
:1005100000F058FC0F2000F039FC102000F052FCD5
:10052000102000F033FC0B2000F04CFC0B2000F0FE
:100530002DFC0E2000F046FC0E2000F027FC42F6B9
:100540005041306EC0F2034101F1C0621043306689
:10055000122005F134037066B36640F21813C2F23C
:100560000003F366B36F1A43B26705F13802F06710
:10057000C6F8802040F23C12C2F20002C6F8842085
:1005800032680A43326004F128027060B26040F2BF
:100590006012C2F20002F260B26C1143B164F06406
:1005A00004F12C00306540F28410C2F20000706546
:1005B00070BD00002DE9F04381B00E4646F21007F1
:1005C000002198461546C4F2020701F031FA0446AC
:1005D0002846002101F02CFA054600BF386EC007FE
:1005E000FCD13046002101F023FA064640460021A6
:1005F00001F01EFAB96FC907FCD100BF3968C907FD
:10060000FCD100BFB96CC907FCD140F2181840F208
:100610003C1940F2601C40F2841E00214FF0FF3272
:10062000C2F20008C2F20009C2F2000CC2F2000ECF
:1006300023B293424FF00E03C8BF072328F81130AE
:1006400033B293424FF00E03C8BF072329F811308D
:100650002BB293424FF00E03C8BF07232CF8113082
:1006600003B293424FF00E03C8BF07232EF8113098
:100670000131640076006D0010294FEA4000D7D1A7
:1006800000201221C8F82000C9F82000CCF8200072
:10069000CEF820007966F9677960F964396E41F027
:1006A00001013966B96F41F00101B967396841F05C
:1006B00001013960B96C41F00101B96440F20C41AB
:1006C000C4F200018861C1F81804086840F4C060F1
:1006D0000860D1F8000440F4C060C1F8000401B023
:1006E000BDE8F0832DE9F0412DED108B40F2A81507
:1006F00040F2AC14C2F20005C2F2000440F2B0169F
:10070000B0EE429A95ED002A94ED003AC2F200064E
:1007100096ED004A40F2080822EE402A23EE203AE5
:10072000C2F2000832EE432A24EE013A98ED004A64
:1007300094ED005A96ED006A24EE004A25EE015A27
:1007400034EE054A26EE205A34EE454A98ED005A1A
:1007500095ED006A25EE205A26EE016A35EE465ADE
:1007600096ED006A32EE432AB6EE003A22EE03DA44
:1007700026EE002A35EE022A98ED005A24EE03CA2E
:1007800095ED004A22EE03BA24EE202A94ED004AA9
:1007900025EE011A31EE021A24EE000A31EE400A6B
:1007A000F5EE401AB0EE628AB0EE61AAF1EE10FAF0
:1007B00020EE03EA0AD1B5EE409AF1EE10FA05D127
:1007C000B5EE408AF1EE10FA00F0E8802AEE0A0A4F
:1007D00029EE091A30EE010A28EE081A30EE010A55
:1007E00000F0ACFE98ED003A95ED004A94ED005A09
:1007F00096ED006A98ED007AD5ED000AD4ED001A66
:10080000D5ED002AD4ED004AF2EE003A62EEA32ABA
:1008100064EEA33AD8ED004AD8ED005AD5ED006A4F
:10082000D5ED007A20EE0A2A20EE091A20EE080AF9
:1008300064EEA54A66EEA75AD4ED006AD4ED007ABC
:1008400096ED008A96ED009A66EEA76A68EE097A40
:10085000B1EE008A35EE055A27EE087A27EE269A81
:1008600022EE05AA3AEE099A27EE257A34EE044ADA
:1008700037EE097A21EE049A37EE499A36EE066A87
:1008800020EE887A67EE270A22EE06AA70EECA0AE0
:1008900095ED00AA64EE884A24EE8AAA33EE033A64
:1008A0007AEE200A21EE03AA70EECA0A70EEC70A99
:1008B00022EEA5AA7AEE200A62EEA62A72EEA00A1D
:1008C000D4ED002A20EE077A37EE20AA24EEA27A91
:1008D00022EE033A33EE073A21EE887A67EE270AD2
:1008E00030EE833A21EE066A33EE463A33EE473A6B
:1008F00023EEA56A36EE033A23EEA66A36EE033AF5
:1009000020EE070A30EE03FA96ED000A25EE883A4B
:1009100023EE000A22EE042A30EE420A96ED002A67
:1009200026EE883A23EE022A30EE020A21EE051A5C
:1009300030EE418A29EE090A2AEE0A1A30EE010A3F
:100940002FEE0F1A30EE010A28EE081A31EE000AD7
:1009500000F0F4FD40F20400C2F2000090ED004A05
:1009600029EE001A24EE011A90ED004A20EE0A2A20
:100970003DEE41DA24EE021A90ED002A20EE0F3A05
:100980003CEE41CA22EE031A90ED002A20EE080A3E
:1009900020EE020A3BEE41BA3EEE40EA9FED5D0AD0
:1009A00098ED001A2DEE002A31EE021A88ED001A99
:1009B00095ED001A2CEE002A32EE011A85ED001A90
:1009C00094ED001A2BEE002A32EE011A84ED001A83
:1009D00096ED001A2EEE000A30EE010A86ED000AAE
:1009E00098ED000A98ED001A95ED002A95ED003A71
:1009F00020EE010A22EE031A94ED002A94ED003A4B
:100A000030EE010A22EE031A96ED002A96ED003A26
:100A100030EE010A22EE031A30EE010A00F08EFDDC
:100A200098ED001A20EE011A88ED001A95ED001AD3
:100A300020EE011A85ED001A94ED001A20EE011A3D
:100A400084ED001A96ED001A20EE010A86ED000AE8
:100A500098ED000A95ED001A94ED002A96ED003A03
:100A600020EE010A22EE031A30EE010A98ED001A78
:100A700098ED002A95ED003A95ED004A21EE021A14
:100A800023EE042A94ED003A94ED004A31EE421A26
:100A900023EE042A31EE421A96ED002A96ED003A32
:100AA00030EE000A22EE032A71EE020A01F0AEF9DE
:100AB00040F2D017C2F2000787ED000A95ED000A58
:100AC00096ED001A98ED002A94ED003A20EE010A06
:100AD00022EE031A30EE410A30EE000A01F000F96E
:100AE00040F21410B1EE400AC2F2000080ED000A9C
:100AF00097ED000A9FED081A20EE010A87ED000A23
:100B000090ED000A20EE010A80ED000ABDEC108B8A
:100B1000BDE8F0816F12033BE02E654243F63000E2
:100B2000C4F20200016841F0010101600020C4F23A
:100B30000200016841F429410160016821F4AC41DF
:100B40000160816841F47F418160C16821F4407196
:100B5000C160016A41F0A04141F0AA6101627047A1
:100B600010B582B043F64400C4F20200016843F2BB
:100B7000000441F48051C4F201040160FFF7CEFF8C
:100B8000206840F003002060206840F004002060EE
:100B9000206840F030002060206820F08000206055
:100BA000206840F440702060206820F4406020609D
:100BB00000206060204600F009F800BFA0688007B0
:100BC000FCD5E0688DF8070002B010BD016841F067
:100BD00040010160704700004FF4805283689B071A
:100BE00004D41304A2F10102F8D10AE0C1604FF469
:100BF000805100BF8268D20706D10A04A1F1010129
:100C0000F8D10020C0B27047C068C0B27047000081
:100C100010B54EF2100448F29F60CEF20004C0F20C
:100C2000010060600F2000F0C5F80020A0600720E0
:100C3000206010BD40F27400C2F200000168013172
:100C4000016070474EF68850CEF20000016841F412
:100C5000700101604FF0006140F8801C7047000097
:100C600080B543F63000C4F20200416941F0100142
:100C70004161016841F0010101600020C4F20200FD
:100C8000016841F420110160016821F4A0110160A4
:100C9000816841F470118160416A41F4EE61416202
:100CA00041F20C00C4F201000168002101600168FA
:100CB00041F400510160016821F4805101604FF45A
:100CC000597140F8041C016841F02C01016000F0EA
:100CD00081F800F067F880BD40F2D41C41F20000BA
:100CE000C2F2000C0021C4F201008CF8001001686F
:100CF000890609D540F2E401C2F2000142680B788E
:100D0000D0B213B9202800D07047012B04D140285D
:100D10001EBF0020087070471F2B9EBF40F2C4000A
:100D2000C2F20000C254581CC2B2202A0870EBD193
:100D30000020087040F2C4014FF6FF734FF0FF32FD
:100D4000C2F20001881840780132181A1D2A83B2B5
:100D5000F8D1C88B834218BF7047488840F2B4125C
:100D6000C2F20002108088885080C888908008896C
:100D7000D0804889108188895081C8899081088AEB
:100D8000D08101208CF800007047000000F01F00A7
:100D9000012101FA00F04EF20011CEF200010860CC
:100DA000704700004EF20410CEF2000020210160D6
:100DB000704700004EF623510001CEF2000108708A
:100DC00070470000E421C0F2E00161F31F203021F0
:100DD000017070474EF22540CEF2000020210170D4
:100DE000704700004EF60C50CEF2000001684FF63E
:100DF000FF02114041F0052141F47A010160704782
:100E000080B54FF4FA7000F035FA40F2FF7040F20E
:100E1000FF7140F2FF7240F2FF73FFF7CBFB4FF41C
:100E2000FA7000F027FA3020302130223023FFF70B
:100E3000C1FB80BD10B582B040F21410C2F20000B8
:100E400090ED000AB2EE0E1A20EE010A40F2D01028
:100E50008DED000AC2F2000090ED000ABAEE0E1A03
:100E600020EE010A40F2B41C8DED010AC2F2000C22
:100E7000BCF80C0040F21A41884224BF0020CDE9A2
:100E80000000BCF8041040F21940814240F2D51134
:100E9000C2F2000105D8BCF8062082429CBF0120A6
:100EA00008700878012843D1BCF8040040F21942C8
:100EB00090423DD8BCF8060040F2AB52904237D386
:100EC0000220087040F61400C4F20200026822F406
:100ED000C042026040F28400C2F20000006840F2AA
:100EE0008002C2F20002106040F28C00C2F20000E8
:100EF000006840F28802C2F20002106040F2EC008A
:100F0000C2F200000022026040F2F800C2F20000CB
:100F1000026040F2E800C2F20000026040F2F40019
:100F2000C2F20000026040F2F000C2F20000026073
:100F30000878022815D1BCF8040040F2194290420A
:100F40000FD8BCF8060040F29F72904209D30020EF
:100F5000087040F61400C4F20200016841F4C04178
:100F6000016040F20C1EC2F2000E0021CEF800100B
:100F70004FF61C24BCF80010CFF6FF74BCF800300C
:100F800040F2E4529142214607D840F2D3518B42BD
:100F90000AD8BCF8003004F11001194400EE101A10
:100FA000B8EEC00A8EED000A9DED010A9EED001A12
:100FB00040F2081231EE401AB0EE080A81EE001A33
:100FC000C2F200020021116040F2E4508EED001ADE
:100FD000BCF80210BCF80230814206D840F2D3506F
:100FE000834209D8BCF802301034E01801EE100A30
:100FF000B8EEC11A82ED001A9DED001A92ED002A9A
:1010000040F2101132EE411A81EE001AC2F20001D4
:101010000020086082ED001ABCF8040040F21B4278
:10102000904223D3BCF80620BCF8060040F2E553FA
:101030009A420BD3A0F2E45001EE100AB8EEC11AA6
:1010400081EE000A81ED000A02B010BD40F2D352D9
:1010500090420BD8BCF80600A0F2D45001EE100A62
:10106000B8EEC11A81EE000A81ED000A02B010BD8F
:101070002DE9F04F81B040F2900440F2A40740F215
:10108000B00640F2BC0540F2A20840F2AC0940F2C2
:10109000B80AC2F200040020C2F20007C2F2000641
:1010A000C2F20005C2F20008C2F20009C2F2000A50
:1010B00040F2CF7B206038603060286019E000BFCC
:1010C00000F0CAFCB8F90000396832680844B9F980
:1010D000001038605018BAF900102A6830605018B3
:1010E0002860042000F0C6F82168481C594520609B
:1010F00018DA4BF6510145F62942C0F21E51CCF2E6
:101100008F2200FB021047F2A201C0F63D21884267
:10111000D6D840F61401C4F20201086880F4C04039
:101120000860CDE740F61401C4F20201086844F6F5
:10113000D35340F4C04008603868C1F2620350FBEA
:1011400003F0C11101EBD0713068396050FB03F03E
:10115000C21102EBD0722868276850FB03F0C3115C
:1011600003EBD07304A032602B60009700F072FC98
:1011700001B0BDE8F08F00BF256420256420256400
:101180002025640A0000000080B543F60800C4F280
:10119000020050F8081C41F4803140F8081C00BFE0
:1011A00050F8081C8903FBD5816B41F080518163A5
:1011B00047F20001C4F200010A6842F440420A60AA
:1011C000D0F8F81340F203721143C0F8F813016825
:1011D0000160016841F4805101600168016041F6DD
:1011E0000411C0F2400140F8041C50F8081C41F002
:1011F000807140F8081C00BF50F8081C8901FBD51D
:10120000016841F002010160016801F00C01082948
:10121000FAD100F039FD80BDA0F57A7000EE100A19
:101220009FED101AB8EEC00A9FED0F2A20EE010ABA
:1012300080EE020A9FED0D1A9FED0D2A002130EE7F
:10124000010A30EE020ABDEEC00A10EE100AB1EB40
:10125000D02F1CBF40F2FF707047302898BF30205D
:10126000704700BF00E0F94400007A440AD7233CED
:1012700000004042B0B5054600F0ECF904466D426E
:1012800000F0E8F9201AA842FAD1B0BD80B500F00C
:10129000E3FB00F043F840F2A800C2F2000090ED3A
:1012A000000A40F2B400C2F200009FED1B1A90ED5C
:1012B000002A40F2C000C2F2000062EE010A90ED86
:1012C000002A40F27800C2F20000B0F9000020EEDF
:1012D000010A22EE011A02EE100A40F27A00C2F26E
:1012E0000000B0F90000F8EEC21A02EE100A40F257
:1012F0007C00C2F20000B0F90000B8EEC22A03EE92
:10130000100AF8EEC32AFFF7EDF9FFF793FD00F09E
:101310006FFA00F0A5F980BD35FA8E3C40F2A200CC
:10132000C2F20000B0F900109FED281A00EE101A6A
:1013300040F2AC01C2F20001B1F90010B8EEC00AEF
:1013400080EE010A03EE101A40F2B801C2F2000169
:10135000B8EEC33AB1F9001083EE013A05EE101A67
:10136000B8EEC55A85EE011A40F2A800C2F200009C
:1013700090ED002A9FED144A9FED155A40F2B401FA
:1013800022EE042A20EE050AC2F2000132EE000A23
:1013900091ED002A80ED000A40F2C00022EE040A1E
:1013A00023EE052AC2F2000030EE020A90ED002A78
:1013B00081ED000A22EE040A21EE051A30EE010A40
:1013C00080ED000A704700BF3333333F0000834293
:1013D0009A99993EB0B51425C4F20205286843F2E3
:1013E000000420F01000C4F20104286020466B21A4
:1013F000FFF7F2FB20468021FFF7EEFB286840F064
:10140000100028609620FFF735FF2868682120F03B
:10141000100028602046FFF7DFFB20460721FFF77A
:10142000DBFB286840F0100028609620FFF722FFC1
:1014300028686B2120F0100028602046FFF7CCFBC5
:1014400020460321FFF7C8FB286840F01000286001
:101450000A20FFF70FFF28686A2120F0100028609B
:101460002046FFF7B9FB20461021FFF7B5FB28689F
:1014700040F0100028600A20FFF7FCFE28686C216D
:1014800020F0100028602046FFF7A6FB2046002130
:10149000FFF7A2FB286840F0100028600A20FFF741
:1014A000E9FE2868192120F0100028602046FFF787
:1014B00093FB20460021FFF78FFB286840F01000C7
:1014C00028600A20FFF7D6FE28681A2120F01000B5
:1014D00028602046FFF780FB20460321FFF77CFBB6
:1014E000286840F0100028600A20FFF7C3FE286833
:1014F0001C2120F0100028602046FFF76DFB2046DD
:101500001021FFF769FB286840F0100028600A20CE
:10151000FFF7B0FE28681B2120F01000286020464D
:10152000FFF75AFB20460821FFF756FB286840F0DA
:10153000100028606420FFF79DFEB0BD45F6DF1166
:1015400010EE100AC5F63771BEEE001AA1EB60006E
:1015500020EE011A00EE100A21EE001A21EE001A08
:10156000B7EE082A31EE021A21EE000A7047000099
:10157000B0B51425C4F20205286843F2000420F037
:101580001000C4F2010428602046F521FFF724FB77
:1015900020460021FFF720FB29686838B0FA80F068
:1015A00041F0100140092960B0BD000043F6300051
:1015B000C4F20200016841F00401016040F600003D
:1015C000C4F20200016841F0A0510160416821F4B9
:1015D000C0414160816841F020518160C16821F0C3
:1015E0007051C1607047000000F042FB00F00CFB3E
:1015F00000F03AFB00F0DEFAFFF702FC00F00CF816
:101600000446FFF743FE00BF00F006F8001BB0F5EC
:10161000FA6FF9D3F2E7000040F274004EF21801BD
:10162000C2F20000CEF200010068096848F6396293
:10163000C3F6E302A1FB02124FF47A714843A0EB18
:10164000121040F2700100F57A70C2F200010860D9
:101650000868704740F27400C2F2000000687047EA
:101660002DE9F04140F2B410C2F20000818840F24E
:10167000D510C2F20000007840F29C06022840F229
:101680009A0040F29E0540F2A008C2F20000C2F2A9
:101690000006C2F20005C2F2000879D1B1F5E16F8F
:1016A00028BF4FF4E16100EE101A40F2FC01C2F2D3
:1016B000000191ED001A40F20011C2F2000191ED1B
:1016C000003A40F20411B8EE400AC2F2000130EED6
:1016D000412A91ED004A31EE000A30EE031A30EE55
:1016E000430A30EE440A32EE035ABDEEC00A35EE2C
:1016F000445A10EE102A32EE430ABDEEC55A31EEBE
:10170000041A30EE040A15EE107ABDEEC11ABDEED1
:10171000C00A40F24B4411EE103A10EE101AA742E4
:10172000078033802A80A8F800109CBF40F21A4737
:101730000780A3429CBF40F21A43338040F24B43E0
:101740009A429CBF40F21A422A8099429CBF40F2C2
:101750001A41A8F800100188B1F5FA6F84BF4FF460
:10176000FA6101803188B1F5FA6F84BF4FF4FA61F4
:1017700031802988B1F5FA6F84BF4FF4FA6129806E
:10178000B8F80010B1F5FA6F09D94FF4FA6104E026
:101790004FF47A71018031802980A8F80010008808
:1017A000FFF73AFD40F294043188C2F20004208031
:1017B0000846FFF731FD40F296062988C2F200067E
:1017C00030800846FFF728FD40F29805B8F8001071
:1017D000C2F2000528800846FFF71EFD33882188E5
:1017E0002A88844618466346FEF7E4FEBDE8F08189
:1017F00040F2A800C2F2000090ED000A40F20C1086
:10180000C2F2000090ED001A40F2EC0030EE010A46
:101810009FED801AC2F2000090ED002A20EE011A1E
:1018200032EE013A9FED7C2AB1EE401AB4EE423A14
:10183000F1EE10FA80ED003A02DD80ED002A08E0BA
:101840009FED762AB4EE423AF1EE10FAB8BF80ED81
:10185000002ABEEE002A20EE020A90ED002A40F295
:10186000F800C2F2000090ED003A32EE002A31EEAC
:10187000433AB2EE040A23EE003A32EE033A9FED09
:10188000662A40F20011B4EE423AC2F20001F1EED3
:1018900010FA81ED003A02DD81ED002A08E09FEDAB
:1018A0005F2AB4EE423AF1EE10FAB8BF81ED002A99
:1018B00080ED001A40F2B400C2F2000090ED001A70
:1018C00040F20810C2F2000090ED002A40F2E80059
:1018D0009FED533AC2F2000031EE421A90ED004AF9
:1018E00021EE033A9FED4C2A34EE033AB4EE423A2D
:1018F000F1EE10FA80ED003A02DD80ED002A08E0FA
:101900009FED462AB4EE423AF1EE10FAB8BF80EDF0
:10191000002A90ED003A40F2F400C2F20000B6EE68
:10192000002A90ED004A21EE022A32EE032A31EE1F
:10193000443A23EE000A32EE002A9FED370A40F2C5
:10194000FC01B4EE402AC2F20001F1EE10FA81ED82
:10195000002A02DD81ED000A08E09FED300AB4EEB6
:10196000402AF1EE10FAB8BF81ED000A80ED001AAE
:1019700040F2C000C2F2000090ED000A40F21010E8
:10198000C2F2000090ED001A40F2F0009FED252A0F
:10199000C2F2000030EE010A90ED003A20EE022A79
:1019A0009FED211A33EE022AB4EE412AF1EE10FA2D
:1019B00080ED002A02DD80ED001A08E09FED1B1A81
:1019C000B4EE412AF1EE10FAB8BF80ED001AB8EE7D
:1019D000081A90ED002A20EE010A32EE001A9FED5F
:1019E000120A40F20410B4EE401AC2F20000F1EE06
:1019F00010FA80ED001A02DD80ED000A70479FEDBD
:101A00000B0AB4EE401AF1EE10FAB8BF80ED000AEE
:101A1000704700BF0AD7A3BB00009643000096C3DF
:101A20000AD7A33B0AD723BC0000C8430000C8C3A1
:101A300041EA400000210322034600BF9BB2594007
:101A4000013A4FEA1313F9D101F00F0141EA0010F6
:101A500080B27047704700002DE9F04140F2140851
:101A6000C4F20208D8F8000043F2000420F010008D
:101A7000C4F20104C8F800002046BB21FFF7ACF80F
:101A800020460021FFF7A8F8054620460021FFF771
:101A9000A3F840F2780140EA0520C2F20001088074
:101AA00020460021FFF798F8054620460021FFF761
:101AB00093F840F27A0140EA0520C2F20001088062
:101AC00020460021FFF788F8054620460021FFF751
:101AD00083F840F27C0140EA0520C2F20001088050
:101AE00020460021FFF778F8054620460021FFF741
:101AF00073F840F2D61140EA0520C2F200010880D6
:101B000020460021FFF768F8054620460021FFF730
:101B100063F840F2A20740EA0520C2F200073880CD
:101B200020460021FFF758F8054620460021FFF720
:101B300053F840F2AC0640EA0520C2F200063080BD
:101B400020460021FFF748F8054620460021FFF710
:101B500043F840F2B80140EA0520C2F200010880D3
:101B6000D8F8002042F01002C8F8002040F290029D
:101B7000C2F200021268B2F5FA6F18BFBDE8F08138
:101B800040F2A402C2F2000212883B8835889A1AF9
:101B900040F2B003C2F200031B883A80EA1A40F216
:101BA000BC03C2F200031B883280C01A0880BDE863
:101BB000F08100002DE9F04140F614084CF6CD47C5
:101BC00040F2E2440025C4F20208CCF6CC470026DD
:101BD00008E000BF0420FFF74DFB0136013CA5F1F2
:101BE00001050DD0A6FB0701880800EB8000401915
:101BF000F0D1D8F8000080F4C040C8F80000E9E750
:101C0000FFF736FABDE8F08110B5FFF7B1FC002808
:101C100018BF10BD40F61404C4F202044FF47A70E9
:101C2000FFF728FB206820F4C04020604FF4967036
:101C3000FFF720FB206840F4C04020604FF496700E
:101C4000FFF718FB206820F4C04020604FF4967026
:101C5000FFF710FB206840F4C0402060FFF788FCCD
:101C60000028DBD010BD000080B5FFF7B3FB80BDBE
:101C700080B5FFF789FAFEF7F3FFFEF771FFFFF774
:101C800095FCFEF7ADFB80BD10B540F200004EF2B2
:101C90000011C2F20000C0F2F5510160FEF7B8FF7A
:101CA000FFF7A0F800200024FFF784F840F274004A
:101CB000C2F20000046010BD4100080218BF0420F9
:101CC0000A0E18BF40F001004FF07F4232EA0101D6
:101CD00008BF40F00200012808BF0520704700003F
:101CE00010B54FF00E402DED028BB0EE408A18EE8D
:101CF000104A00EB4400B0F1506F4AD84FF0FC405E
:101D0000B0EB440F22D2B0EEC80AF7EE000A30EE74
:101D1000C00AF6EE000A60EE208A18EE900A00F083
:101D2000E1F901EE100A14F0004F1DBFDFED2D0A9E
:101D30009FED2D0AB1EE411ADFED2C0A08BF9FED91
:101D40002C0AF8EE001A21EE218A05E0DFED290ABF
:101D500068EE088AB0EE600A9FED271ADFED271AB9
:101D600030EE080A48EE811A9FED251A08EEA11AF6
:101D7000DFED241A48EE811A9FED231A08EEA11A0E
:101D800068EE281ABDEC028B01EE810A30EE200AC3
:101D900010BD4FF0E440B0EB440F0CD918EE100A20
:101DA000FFF78AFF042808BF00F094F9B0EE480A54
:101DB000BDEC028B10BD4FF07F40B0EB440F07D25B
:101DC000B0EE480ABDEC028BBDE8104000F074B9DB
:101DD0000120FEF759FABDEC028BBDE8104000F07F
:101DE00071B900000000C9BF22AAFDB90000C93FB7
:101DF00022AAFD390000000024FE1C3DC78AD83C01
:101E00001E67383D1B93993DAFAA2A3E70B54FF02F
:101E100068422DED048BF0EE408A18EE900AB0EE89
:101E2000608A18EE101A02EB4003B3F1654F3CBF15
:101E300002EB4102B2F1654F7DD200BFC0F3C75340
:101E4000C1F3C7529A1A1B2A09DD10F0004F14BFC4
:101E50009FED830A9FED830ABDEC048B70BD12F1E8
:101E60001A0F36DA11F0004F09D010F0004F0CBFF6
:101E70009FED7D0A9FED7D0ABDEC048B70BD88EE61
:101E8000889A19EE100AFFF717FF042808BF00F020
:101E900021F918EE900AFFF70FFF054618EE100A19
:101EA000FFF70AFF044619EE100AFFF705FF042D9D
:101EB00018BF052D08D1042C18BF052C04D100280B
:101EC00004BF0220FEF7E0F9B0EE490ABDEC048B36
:101ED00070BD4200B2EB410F3AD910F0004F19BF6C
:101EE000DFED630A9FED630ADFED630A9FED630A8E
:101EF000B0EE481A0A46B1EE688A80F00041F0EE72
:101F0000418A10460A1A5200B2F1807F34D248400A
:101F100010F0004FDFED5A1A9FED5A2A1DBFBEEE9A
:101F2000001A70EEE10A30EE420AB6EE001A08BF5F
:101F300070EEA10A00E040E008BF30EE020AB0EE09
:101F4000682A01EE482A08EE818AC2EE081A15E0D6
:101F500011F0004F04BF9FED4C0AF0EE400AD1D0C3
:101F600010F0004F19BFDFED490A9FED490ADFED80
:101F7000490A9FED490AC5E7C8EE881A21EEA11A61
:101F80009FED462ADFED462A41EE022A9FED452AC3
:101F900001EE222ADFED442A41EE022A9FED432A78
:101FA000BDEC048B01EE222A21EE811A01EE020A19
:101FB00030EE210A30EE200A70BD4FF07F42B2EBC6
:101FC000400F28BFB2EB410F09D2F0EE480AB0EE45
:101FD000680ABDEC048BBDE8704000F070B840EAC0
:101FE00001035B0008BF41F0FF410BD0B2EB400F93
:101FF00008BFB2EB410F08D120F0804008EE900AF4
:1020000021F0804108EE101A18E7B2EB400F12BF22
:102010005FEA410340F0FF4001F000413FF40EAFA2
:10202000B2EB410F12BF5FEA400200F0004041F006
:10203000FF413FF403AF4A0092EA40033FF5FEAE92
:10204000002AACBF9FED1A0A9FED1A0A68EE808A3B
:1020500028EE008A18EE900A18EE101AEEE600003C
:10206000DB0FC9BFDB0FC93FDB0F4940DB0F49C0A6
:102070000000C9BF22AAFDB90000C93F22AAFD394C
:102080000060ED3EC30ACE3700000000000049C0EA
:1020900022AA7DBA0000494022AA7D3A2DAD65BD35
:1020A0008FB8D53D0FB511BE61C84C3EA8AAAABED7
:1020B0000000804F0000802F30EE000A704730EEA5
:1020C000200A7047DFED020A80EEA00A7047000088
:1020D000000000009FED020A20EE000A7047000099
:1020E0000000001010B500EE100A2DED028BB1EECD
:1020F000C08A18EE100A20F00040C0F1FF40C00F67
:102100000AD010EE100A20F00040C0F1FF40C00FCE
:1021100004BF0120FEF7B8F818EE100ABDEC028BE0
:1021200010BDF1EE100A4FF6FF71C0F2C03120EA87
:10213000010040F04070E1EE100A70475C21000899
:10214000000000200C000000D401000868210008F5
:1021500010000020C8070000F00100080024F4006F
:08216000CDCCCC3D0000803F16
:0400000508000239B4
:00000001FF
